:100000000C940E050C9436050C9436050C943605AC
:100010000C9436050C9436050C9436050C94360574
:100020000C9436050C9436050C9436050C94360564
:100030000C9436050C9436050C9436050C94360554
:100040000C942F080C9436050C949F080C94790896
:100050000C9436050C9436050C9436050C94360534
:100060000C9436050C94360507634236B79BD8A727
:100070001A39685618AEBAAB558C1D3CB7CC5763CD
:10008000BD6DEDFD753EF6177231BF000000803F7B
:1000900008000000BE922449123EABAAAA2ABECD97
:1000A000CCCC4C3E00000080BEABAAAAAA3E000009
:1000B0000000BF000000803F000000000008417801
:1000C000D3BB4387D1133D190E3CC3BD4282AD2B38
:1000D0003E68EC8276BED98FE1A93E4C80EFFFBE30
:1000E00001C4FF7F3F00000000000000000000008E
:1000F0000000000000000000000000000000000000
:1001000000000000000000000000000000000000EF
:1001100000000000000000000000000000000000DF
:1001200000000000000000000000000101010100CB
:1001300000000101000000010100000001010101B7
:1001400000000001010000010100000101010101A6
:10015000010000000000000000000000000000009E
:100160000000010100000101000001010100000187
:100170000100000101000001010000010100010176
:10018000000000010100000000000000000000006D
:10019000000000000000000000000101000000005D
:1001A0000000010101010001010000010100000146
:1001B0000100000101010100000000010100000038
:1001C000000000000000000000000000000000002F
:1001D0000000000101010100000001010001010116
:1001E0000100000101010101010000010101000005
:1001F00000000001010101010000000000000000FA
:1002000000000000000000000000000000000101EC
:1002100000000101000001010100000101000001D6
:1002200001000001010101000000000101000000C7
:1002300000000000000000000000000000000000BE
:1002400000000101000001010000010100000001A7
:100250000100000101000001010000010100010195
:10026000000000010100000000000000000000008C
:10027000000000000000000000000001010101007A
:100280000000010100000001010000010100000167
:100290000100000101000001010000010101010154
:1002A000010000000000000000000000000000004D
:1002B000000000000000000000000000000000003E
:1002C000000000000000000000000000000000002E
:1002D000000000000000000000000000000000001E
:1002E000000000000000000000000000000000000E
:1002F00000000000000000000000000000000000FE
:1003000000000000000000000000000000010101EA
:1003100001000000000101010100000001010000D6
:1003200000010100000101010101010000000000C5
:1003300000000101010100000001010000010100B5
:1003400000010101010101000001010101010000A2
:10035000000001010000000000000000000000009B
:100360000000000000000101000001010000010187
:100370000000010100000101010001010100000174
:100380000100000000000000000000010100000169
:100390000100000101000001010000010100000056
:1003A0000000000101000001010000010101010045
:1003B000000000000000000000000000000000003D
:1003C0000101000000000000010100000101000027
:1003D0000101010101010100000101000000000014
:1003E0000000000000010100000101000001010007
:1003F00000010100000101000000000000010100F7
:1004000000010100000101010100000000000000E6
:1004100000000000000000000000010100000000DA
:1004200000000101010101010000010100010001C2
:1004300001000001010101010000000000000001B5
:1004400001000001010000010100000101000001A4
:100450000101010100000001010101010000000093
:10046000010100000000000000000000000000008A
:100470000000000001010001010100000101000075
:100480000101000001010000000101000001010064
:100490000000000000000000000101000001010058
:1004A0000001010000010100000101000000000046
:1004B0000001010101000000000001010000000036
:1004C000000000000000000000000000000001012A
:1004D0000000010100000101000001010000010114
:1004E0000000000101000001010000000000000008
:1004F00000000001010000010100000001010101F4
:1005000000000001010000000000000101000101E5
:1005100000000000000000000000000000000000DB
:1005200000000000000000000001010101000000C7
:1005300001010000010100000101000000010100B3
:1005400000010101010101000000000000000101A3
:100550000101000000000001010000000001010194
:100560000101010000010100000101000000010182
:10057000000000000000000000000000000000007B
:100580000000000001010101000000010100000164
:100590000100000101000101010000010101000151
:1005A0000100000101000001010000010100000143
:1005B0000100000001010101000000000000000036
:1005C0000000000000010100000000000001010027
:1005D0000000000001010100000000000001010016
:1005E0000000000000010100000000000001010007
:1005F00000000001010101010100000000000000F5
:1006000000000000010101010000000101000001E3
:1006100001000000000000010100000000000101D5
:1006200000000000010100000000000101000000C6
:1006300000000001010101010100000000000000B4
:1006400000000000010101010000000101000001A3
:100650000100000000000001010000000001010194
:100660000000000000000001010000010100000185
:100670000100000001010101000000000000000075
:100680000000000000000101000000000001010165
:100690000000000001000101000000010000010154
:1006A0000000000101010101010000000000010142
:1006B0000000000000000101000000000000000038
:1006C0000000000101010101010000010100000022
:1006D0000000000101010101000000000000000114
:1006E0000100000000000001010000010100000104
:1006F00001000000010101010000000000000000F5
:1007000000000000010101010000000101000001E2
:1007100001000001010000000000000101010101D1
:1007200000000001010000010100000101000001C2
:1007300001000000010101010000000000000000B4
:1007400000000001010101010100000101000001A0
:100750000100000000000101000000000000010194
:100760000000000000010100000000000001010085
:100770000000000000010100000000000000000077
:100780000000000001010101000000010100000162
:100790000100000101000001010000000101010150
:1007A0000000000101000001010000010100000142
:1007B0000100000001010101000000000000000034
:1007C0000000000001010101000000010100000122
:1007D0000100000101000001010000000101010110
:1007E0000100000000000001010000010100000103
:1007F00001000000010101010000000000000000F4
:1008000000000000000000000000000000000000E8
:1008100000000000000000000000000000000000D8
:1008200000000000000000000000000000000000C8
:1008300000000000000000000000000000010101B5
:1008400001000000000101010100000000010101A0
:10085000010000000101010101000000010101018E
:100860000101000000000000000000000000000086
:100870000000000000000101000001010000010172
:100880000000010100000101000001010000010160
:100890000000010100000101000000000000010152
:1008A0000000000000000000000000000000000048
:1008B0000101000000000000010100000000000034
:1008C0000101000001010000010100000101000020
:1008D0000101000000000000010100000000000014
:1008E0000000000000000000000000010101010004
:1008F00000000101000000000000010100000101F2
:1009000000000101010101000000010101010100DD
:1009100000000000000000000000000000000000D7
:1009200000000000000000000101000001010000C3
:1009300000000000010100000101000001010101AF
:1009400000000000010100000000000001010000A3
:100950000000000000000000000000000000010195
:10096000000001010000010100000101000001017F
:10097000000001010000010100010100000001016F
:100980000000000000000101000000000000000065
:100990000000000000000000000101010100000053
:1009A000000101010100000000010101010000003F
:1009B000010100000101000001010101010100002D
:1009C000000000000000000000000000000800021D
:1009D0000100000304070000000000000000000008
:1009E0000000250028002B00000000002400270044
:1009F0002A000404040404040404020202020202A1
:100A000003030303030301020408102040800102D2
:100A100004081020010204081020F00811241FBE51
:100A2000CFEFD8E0DEBFCDBF11E0A0E0B1E0E4E160
:100A3000FFE202C005900D92AE32B107D9F722E075
:100A4000AEE2B1E001C01D92A03CB207E1F715E0B3
:100A5000CEE0D5E004C02197FE010E949015CD3074
:100A6000D107C9F70E94B7090C9488170C940000AD
:100A700090E0FC01E653F64F2491FC01EA5FF54F4C
:100A80003491FC01EE50F64FE491EE23C9F022239D
:100A900039F0233001F1A8F4213019F1223029F185
:100AA000F0E0EE0FFF1FE252F64FA591B4918FB721
:100AB000F894EC91611126C030953E233C938FBF92
:100AC00008952730A9F02830C9F0243049F78091E3
:100AD00080008F7D03C0809180008F77809380009D
:100AE000DFCF84B58F7784BDDBCF84B58F7DFBCF1F
:100AF0008091B0008F778093B000D2CF8091B0000A
:100B00008F7DF9CF3E2BDACF8E50806480937C00AE
:100B100080917A00806480937A0080917A0086FDCB
:100B2000FCCF809178009091790008953FB7F894B8
:100B30008091B7019091B801A091B901B091BA012B
:100B400026B5A89B05C02F3F19F00196A11DB11D28
:100B50003FBFBA2FA92F982F8827BC01CD01620F64
:100B6000711D811D911D42E0660F771F881F991F1F
:100B70004A95D1F708958F929F92AF92BF92CF92EC
:100B8000DF92EF92FF924B015C010E9496056B0190
:100B90007C010E9496056C197D098E099F09683EAB
:100BA000734081059105A8F321E0821A9108A108FC
:100BB000B10888EEC80E83E0D81EE11CF11C811438
:100BC0009104A104B10429F7FF90EF90DF90CF903A
:100BD000BF90AF909F908F900895AF92BF92CF92A9
:100BE000DF92EF92FF920F931F93CF93DF936C01ED
:100BF0007B018B01040F151FEB015E01AE18BF08CE
:100C0000C017D10759F06991D601ED91FC9101907F
:100C1000F081E02DC6010995892B79F7C501DF9197
:100C2000CF911F910F91FF90EF90DF90CF90BF90E9
:100C3000AF900895FC01538D448D252F30E0842F13
:100C400090E0821B930B541710F0CF9608950197F4
:100C50000895FC01918D828D981761F0A28DAE0FE1
:100C6000BF2FB11D5D968C91928D9F5F9F73928F68
:100C700090E008958FEF9FEF0895FC01918D828D94
:100C8000981731F0828DE80FF11D858D90E0089561
:100C90008FEF9FEF0895FC01918D228D892F90E0B9
:100CA000805C9F4F821B91098F73992708958BEB6E
:100CB00091E00E944B0621E0892B09F420E0822F6D
:100CC000089580E090E0892B29F00E945706811159
:100CD0000C9400000895FC01A48DA80FB92FB11D3C
:100CE000A35ABF4F2C91848D90E001968F73992762
:100CF000848FA689B7892C93A089B1898C91837040
:100D000080648C93938D848D981306C00288F38938
:100D1000E02D80818F7D80830895EF92FF920F9365
:100D20001F93CF93DF93EC0181E0888F9B8D8C8D97
:100D300098131AC0E889F989808185FF15C09FB78B
:100D4000F894EE89FF896083E889F989808183704E
:100D5000806480839FBF81E090E0DF91CF911F91FD
:100D60000F91FF90EF900895F62E0B8D10E00F5F1E
:100D70001F4F0F731127E02E8C8D8E110CC00FB6F4
:100D800007FCFACFE889F989808185FFF5CFCE018C
:100D90000E946B06F1CFEB8DEC0FFD2FF11DE35A96
:100DA000FF4FF0829FB7F8940B8FEA89FB8980810F
:100DB0008062CFCFCF93DF93EC01888D8823B9F089
:100DC000AA89BB89E889F9898C9185FD03C0808156
:100DD00086FD0DC00FB607FCF7CF8C9185FFF2CFD3
:100DE000808185FFEDCFCE010E946B06E9CFDF91B8
:100DF000CF910895809162029091630297FF05C0A0
:100E000008969093630280936202809162029091AF
:100E10006302883091052CF00897909363028093C9
:100E20006202809160029091610297FF05C008966E
:100E300090936102809360028091600290916102C0
:100E4000883091052CF0089790936102809360029E
:100E50000895CF92DF92EF92FF920F931F93CF935B
:100E6000DF9300D0CDB7DEB769834A83880F991F1F
:100E70000091BA021091BB02000F111FE4E6F2E0EC
:100E80009F01245632402017310714F41192F8CFF5
:100E90002981FC01EC59FD4F21838A81808360E028
:100EA0008091B8020E9438051016110604F5015011
:100EB0001109F801EC59FD4FE080D090B602C090C6
:100EC000B40288E0F82E6E2D661F6627661F8C2DF3
:100ED0000E943805EE0C61E08D2D0E94380560E01F
:100EE0008D2D0E943805FA94F110EDCFDDCF61E031
:100EF0008091B8020F900F90DF91CF911F910F91C9
:100F0000FF90EF90DF90CF900C943805EF92FF9216
:100F10001F93CF93DF932091BA023091BB028217C7
:100F20009307B4F4EC0123E0880F991F2A95E1F7A9
:100F30009C012C583D4F790111E0F70111927F017E
:100F400040E0612FCE010E9429071F5F1930A9F7E9
:100F5000DF91CF911F91FF90EF9008952091BA02F9
:100F60003091BB0212161306FCF488309105E0F4B0
:100F700068307105C8F420E830E002C03595279547
:100F80006A95E2F7FC01EC59FD4F5089442349F082
:100F9000252B208B61E0680F408990E080E00C9465
:100FA000290720952523F5CF08950F931F93CF93FD
:100FB000DF93EC0188819981009759F02A813B8168
:100FC0002617370730F081E0DF91CF911F910F9105
:100FD00008958B016F5F7F4F0E94BB16009759F0F9
:100FE000998388831B830A832C813D81232B59F7A6
:100FF000FC011082E8CF80E0E7CFEF92FF920F93E1
:101000001F93CF93DF93FB0101900020E9F7319705
:10101000E61BF70BE1F07B018C01DC011496CD910E
:10102000DC91CE0FDF1FBE010E94D507882381F01F
:10103000F8012081318184819581B701820F931F4E
:101040000E948117D8011596DC93CE93149781E006
:10105000DF91CF911F910F91FF90EF9008951F9214
:101060000F920FB60F9211242F933F938F939F935C
:10107000AF93BF938091B3019091B401A091B5015A
:10108000B091B6013091B20123E0230F2D3758F50E
:101090000196A11DB11D2093B2018093B3019093DD
:1010A000B401A093B501B093B6018091B7019091BE
:1010B000B801A091B901B091BA010196A11DB11D6D
:1010C0008093B7019093B801A093B901B093BA018E
:1010D000BF91AF919F918F913F912F910F900FBE34
:1010E0000F901F90189526E8230F0296A11DB11DA1
:1010F000D2CF1F920F920FB60F9211242F933F93CE
:101100004F935F936F937F938F939F93AF93BF930F
:10111000EF93FF938BEB91E00E946B06FF91EF91B1
:10112000BF91AF919F918F917F916F915F914F91FF
:101130003F912F910F900FBE0F901F9018951F9207
:101140000F920FB60F9211242F938F939F93EF93CB
:10115000FF93E091CB01F091CC018081E091D1012E
:10116000F091D20182FD1BC090818091D4018F5FEC
:101170008F732091D501821741F0E091D401F0E006
:10118000E554FE4F958F8093D401FF91EF919F918D
:101190008F912F910F900FBE0F901F901895808107
:1011A000F4CF90E0FC01EA5FF54F24918E50964F0A
:1011B000FC018491882399F090E0880F991FFC012D
:1011C000E851F64FA591B491FC01E252F64F85919A
:1011D00094918FB7F894EC91E22BEC938FBF089524
:1011E000CF93DF931092BE011092BD0188EE93E081
:1011F000A0E0B0E08093BF019093C001A093C10133
:10120000B093C20182E191E09093BC018093BB0155
:1012100085EC90E09093C8018093C70184EC90E046
:101220009093CA018093C90180EC90E09093CC0127
:101230008093CB0181EC90E09093CE018093CD011F
:1012400082EC90E09093D0018093CF0186EC90E007
:101250009093D2018093D1011092D4011092D501C4
:101260001092D6011092D701CAE0D0E0D093B50217
:10127000C093B40288E090E09093B7028093B602E6
:1012800089E090E09093B9028093B80281E090E009
:101290009093BB028093BA028AE00E94D1088091A9
:1012A000B6020E94D1088091B8020E94D10861E084
:1012B0008091B8020E943805D093B502C093B40261
:1012C000E4E7F2E084EB92E011928E179F07E1F7DA
:1012D000D0E0C0E08091BA029091BB02C817D90754
:1012E0003CF540E06FE0CE010E9429078091BA02F0
:1012F0009091BB02C817D9072CF447E06BE0CE01F0
:101300000E94290740E069E0CE010E942907CE0132
:101310000E9486078091BA029091BB02C817D90734
:101320002CF440E06CE0CE010E9429072196D2CF38
:101330001092610210926002109263021092620297
:101340008FEF9FEF90935D0280935C0290935F021A
:1013500080935E0284EF91E090935902809358024B
:1013600090935B0280935A02DF91CF910895CF93BF
:10137000DF93CDB7DEB7A1970FB6F894DEBF0FBEEF
:10138000CDBF789484B5826084BD84B5816084BD0E
:1013900085B5826085BD85B5816085BD80916E0013
:1013A000816080936E001092810080918100826044
:1013B0008093810080918100816080938100809181
:1013C00080008160809380008091B1008460809370
:1013D000B1008091B00081608093B00080917A006C
:1013E000846080937A0080917A00826080937A0092
:1013F00080917A00816080937A0080917A00806881
:1014000080937A001092C100E091CB01F091CC0161
:1014100082E08083E091C701F091C8011082E091E1
:10142000C901F091CA0180E180831092D301E0915B
:10143000CF01F091D00186E08083E091CD01F09161
:10144000CE01808180618083E091CD01F091CE0159
:10145000808188608083E091CD01F091CE01808110
:1014600080688083E091CD01F091CE0180818F7DF5
:1014700080838091BA029091BB021816190634F449
:1014800041E06CE090E080E00E9429078091BA0280
:101490009091BB021816190634F446E06AE090E019
:1014A00080E00E94290790E080E00E94860783E1A7
:1014B0000E948405BC01990F880B990B6115710579
:1014C0008105910511F00E94FB100E94AC1018E0FC
:1014D000C12ED12CE12CF12CA70196010E943412CF
:1014E00070936102609360020E94AC10A7019601A4
:1014F0000E94341270936302609362020AE0C02E6D
:10150000D12C10E000E0F12CE12C8FE00E9484054A
:10151000E80EF91E8EE00E948405080F191F21E0D5
:10152000C21AD10891F72AE030E0C701B9010E9440
:1015300068151B017093590260935802C801B901E4
:101540000E94681570935B0260935A02D12CC12CE3
:101550002B0130EA430E511C310140EA641A710834
:1015600080EA280E311C8B01005A1109F12CE12C64
:10157000D601A651BF4FBA8BA98B6AE070E080E01C
:1015800090E00E94BB0589889A888E0C9F1CB12C24
:10159000A12CF401849141E0811101C040E0B70128
:1015A000C5010E94AE07FFEFAF1ABF0A28E3820E03
:1015B000911C38E0A316B10461F74FEFE41AF40A66
:1015C00088E0E816F104C9F68EE00E9484058017D1
:1015D0009107D4F08EE00E94840548165906A4F0C5
:1015E0008FE00E9484058615970574F08FE00E94B5
:1015F00084052816390644F09FEFC91AD90AA1E3D9
:10160000CA16D10409F0B2CF90E080E00E948607AC
:101610008EE00E94840580179107D4F38EE00E942B
:10162000840548165906A4F38FE00E9484058615A8
:10163000970574F38FE00E9484052816390644F359
:10164000B8E04B2E512C612C712CFE013196F88B99
:10165000EF8780915C0290915D02019631F080915C
:101660005E0290915F02019659F48091020190917F
:101670000301803491050CF4E5C081E080933001D2
:1016800000912E0110912F018FB7F8948090B30133
:101690009090B401A090B501B090B6018FBF72E0F8
:1016A000C72ED12C8FB7F8944091B3015091B4015B
:1016B0006091B5017091B6018FBF8091000190914A
:1016C0000101092E000CAA0BBB0B880D991DAA1D48
:1016D000BB1D481759076A077B0708F0E3C083E181
:1016E0000E948405BC01990F880B990B0E943B1145
:1016F00020E030EC4FE754E40E943B1320E030E060
:10170000A9010E94CF1220E030E040E650E40E94A0
:10171000E31320E030E847E754E40E94761120E02C
:1017200030E040E251E40E94CF120E94AD136115F7
:10173000710509F4B0C070930101609300018EE05F
:101740000E948405E0905A02F0905B029701205AB3
:1017500031098217930724F4D0922F01C0922E01F1
:101760008EE00E948405A0EAEA0EF11CE816F90654
:1017700034F4E4E0F0E0F0932F01E0932E018FE0E9
:101780000E948405E0905802F09059029701205A77
:1017900031098217930734F421E030E030932F01B0
:1017A00020932E018FE00E94840530EAE30EF11CA5
:1017B000E816F90634F483E090E090932F018093CB
:1017C0002E0180912E0190912F0102960817190782
:1017D00039F40115110521F010932F0100932E010A
:1017E00080912E0190912F0102970817190739F463
:1017F0000115110521F010932F0100932E012FB731
:10180000F8946091B3017091B4018091B501909109
:10181000B6012FBF24E630E040E050E00E949D1268
:1018200041E0623371058105910508F040E0609167
:101830005E0270915F0280915C0290915D020E9455
:10184000AE0730CF0E94AC10A30192010E94341267
:1018500070935F0260935E020E94AC10A30192013C
:101860000E94341270935D0260935C02E3E0660FA5
:10187000771FEA95E1F7E0915E02F0915F02E60FD3
:10188000F71FEE0FFF1FEE5CFE4F8081918118164F
:101890001906C4F2F5CE81E090E0909301018093A7
:1018A00000014DCF80912E0190912F018230910542
:1018B00009F408C10CF0BFC0019709F4C9C08091B8
:1018C00031018F8B811105C080913001882309F48B
:1018D0008FC260915E0270915F0240E080915C0275
:1018E00090915D020E94AE0760E273E080E090E0BC
:1018F0000E94BB0525E0C22ED12C92E3A92E91E0D7
:10190000B92EF12CE12C10E000E0F801EE0FFF1FE2
:10191000EA0DFB1D41E080819181892B09F040E0B7
:10192000B801C7010E94AE070F5F1F4F08301105B5
:1019300061F79FEFE91AF90AA0E1AA0EB11CB8E01D
:10194000EB16F10401F764E170E080E090E00E94A2
:10195000BB05B2E3AB2EB1E0BB2EF12CE12C10E0C5
:1019600000E0F801EE0FFF1FEA0DFB1D41E0808152
:101970009181892B09F440E0B801C7010E94AE07AC
:101980000F5F1F4F0830110561F7EFEFEE1AFE0AE7
:10199000F0E1AF0EB11C28E0E216F10401F762E3BA
:1019A00070E080E090E00E94BB0531E0C31AD108EE
:1019B00009F0A3CF68E572E080E090E00E94BB05EB
:1019C000EE24E394F12C80900201909003018E1498
:1019D0009F040CF406C172E3A72E71E0B72ED12C40
:1019E000C12C10E000E0F801EE0FFF1FEA0DFB1D17
:1019F00080819181E816F90659F440E0B801C601EA
:101A00000E94AE0764E670E080E090E00E94BB05B3
:101A10000F5F1F4F0830110531F74FEFC41AD40A7A
:101A200080E1A80EB11C98E0C916D104D1F6AFEF41
:101A3000EA1AFA0AC8CF8330910509F44DC0049719
:101A400009F03DCF809162029091630201973FC0FF
:101A5000809160029091610201979093610280935E
:101A600060020E94FA06609162027091630241E096
:101A700080916002909161020E94AE072091600205
:101A8000309161028091620290916302790153E08A
:101A9000EE0CFF1C5A95E1F7F701E80FF91FEE0F66
:101AA000FF1FEE5CFE4F4081518142305105D4F062
:101AB00040912E0150912F01452BA1F081E08093A0
:101AC0003101FDCE80916202909163020196909364
:101AD000630280936202C5CF80916002909161029F
:101AE0000196BBCF40915C0250915D0224173507EF
:101AF000F1F1D701A80FB91FAA0FBB1FAE5CBE4FF3
:101B0000809102019091030101968D939C9342E391
:101B1000A42E41E0B42EF12CE12C8501D12CC12C56
:101B2000F80180819181181619061CF401979183A0
:101B300080830E5F1F4F41E080819181892B09F4E2
:101B400040E0B601C7010E94AE07EFEFCE1ADE0AF1
:101B5000F8E0CF16D10421F72FEFE21AF20A30E1B4
:101B6000A30EB11C48E0E416F104B9F6A8CE20910A
:101B70005E0230915F028217930709F0BACF20917D
:101B80000201309103014FEF5FEF50935D024093EC
:101B90005C0250935F0240935E022F5F3F4F309391
:101BA00003012093020122E331E0F90170E060E0DB
:101BB000419151911416150644F48F0102501109F8
:101BC0004F5F5F4FD8014D935C936F5F7F4F6830DD
:101BD000710571F7205F3F4FB1E0223B3B0729F7CA
:101BE00088CFB3E08B1A9108E4E68E16910408F0D2
:101BF000C5C0C4016AE070E00E946815798F688FE3
:101C00009C0146E0220F331F4A95E1F73F8F2E8F4C
:101C1000CB0156E0880F991F5A95E1F79D8F8C8F65
:101C2000B12CA12C15019CE2291A310810E000E02A
:101C3000D501A650B84FB9A3A8A36AE070E080E030
:101C400090E00E94BB057101BAE08B1691040CF084
:101C500073C19701285031093B8F2A8F88A199A120
:101C6000800F911F9A8B898BD12CC12C8E8D9F8DCB
:101C70008E0D9F1DDC01AE58BA4FBC8BAB8B8C8D8B
:101C80009D8D8E0D9F1DFC01E658FA4FFE8BED8B4E
:101C9000F3E3AF16B1045CF4E989FA89849141E079
:101CA000811101C040E0B801C6010E94AE07F8E012
:101CB000EF16F10408F044C1288D398D232B99F0DB
:101CC000F60123E0EE0FFF1F2A95E1F78D899E892B
:101CD000E80FF91FE49141E0E11101C040E0B801D3
:101CE000C6010E94AE073FEFC31AD30A89899A89B9
:101CF000CA969A8B898B98E0C916D10449F60F5F72
:101D00001F4FAFEF2A1A3A0A0830110509F095CF94
:101D10008EE00E94840500915A0210915B029801A6
:101D2000205A3109821793072CF18EE00E94840516
:101D300000561F4F08171907ECF08FE00E9484052A
:101D400000915802109159029801205A31098217C6
:101D5000930784F08FE00E94840500561F4F0817F8
:101D6000190744F0BFEFAB1ABB0AEAE4AE16B104A0
:101D700009F058CF90E080E00E948607FF89F111BA
:101D8000EFC010923001109231010E94AC10A301FB
:101D900092010E94341270936102609360020E946B
:101DA000AC10A30192010E943412709363026093FD
:101DB00062028FEF9FEF90935D0280935C0290939D
:101DC0005F0280935E0223E030E0309303012093B2
:101DD000020110922F0110922E01E2E3F1E080E85F
:101DE000DF011D928A95E9F790E080E00E94860766
:101DF0001A8619861C861B861E861D8663E070E087
:101E0000CE0109960E94D50729853A85811137C1EF
:101E10002115310519F0C9010E9432161A8619865A
:101E20001E861D861C861B8682E3882E81E0982EE6
:101E3000F12CE12C5401D12CC12CD5018D919C9118
:101E40000A9734F464E271E0CE0109960E94FD071E
:101E5000F50180819181009709F41BC14AE0BE0120
:101E60006F5F7F4F0E940411EF85F8890190002079
:101E7000E9F731972F853889E21BF30BC1F00D8507
:101E80001E850E0F1F1FB801CE0109960E94D507AF
:101E9000882369F029853A858D859E85BE016F5F0F
:101EA0007F4F820F931F0E9481171E870D8764E268
:101EB00071E0CE0109960E94FD073FEFC31AD30AD5
:101EC00042E0A40EB11C88E0C816D10409F0B5CFD9
:101ED00062E271E0CE0109960E94FD079FEFE91AC8
:101EE000F90AA0E18A0E911CB8E0EB16F10409F0A2
:101EF000A1CF4D855E8569857A858BEB91E00E9447
:101F0000ED0542E050E06AE271E08BEB91E00E9467
:101F1000ED0589859A85009711F00E94321680E0C0
:101F200090E0892B09F495CB0E945706882309F489
:101F300090CB0E9400008DCBE8E0EE1AF10889CE2C
:101F4000AA8DBB8D189708F0CECEF60193E0EE0F68
:101F5000FF1F9A95E1F72B893C89E20FF31FBACE58
:101F6000F12CE12C10E000E0F701E655FD4F4F01A8
:101F70006AE070E080E090E00E94BB055401A00E92
:101F8000B11ED12CC12CF501849141E0811101C019
:101F900040E0B801C6010E94AE07FFEFCF1ADF0A8A
:101FA0002AE5A20EB11C38E0C316D10461F70F5F19
:101FB0001F4F08301105E1F68EE00E948405209144
:101FC0005A0230915B02590140EAA40EB11C009103
:101FD0005802109159026801A0EACA1AD1080056A5
:101FE0001F4F205A310982179307D4F08EE00E94C8
:101FF0008405A816B906A4F08FE00E9484058C150C
:102000009D0574F08FE00E9484050817190744F0BD
:10201000BFEFEB1AFB0AE3E5EE16F10409F0A2CFDD
:1020200090E080E00E9486078EE00E948405009187
:102030005A0210915B029801205A310982179307C6
:102040009CF38EE00E94840500561F4F0817190765
:102050005CF38FE00E9484050091580210915902B0
:102060009801205A310982179307F4F28FE00E94F9
:10207000840500561F4F08171907B4F282CE83E07B
:1020800090E09E878D8760E271E0C9010E94811710
:10209000CBCE80915E0290915F028C159D0549F434
:1020A00080915C0290915D0266E271E08E159F0561
:1020B00011F068E271E0CE0109960E94FD07F7CEAB
:1020C0008F929F92AF92BF92CF92DF92EF92FF9248
:1020D000CF93DF93EC01688179818A819B816115BF
:1020E00071058105910521F464E279ED8BE597E0B6
:1020F0002DE133EF41E050E00E94341249015A01D2
:102100009B01AC01A7EAB1E40E9453126B017C0170
:10211000ACEEB4EFA50194010E946112C60ED71E69
:10212000E81EF91EF7FE06C081E0C81AD108E108D2
:1021300080E8F80AC882D982EA82FB82C701B60128
:102140009F77DF91CF91FF90EF90DF90CF90BF907E
:10215000AF909F908F9008958F929F92AF92BF9271
:10216000CF92DF92EF92FF9260910401709105018E
:102170008091060190910701611571058105910516
:1021800021F464E279ED8BE597E02DE133EF41E056
:1021900050E00E94341249015A019B01AC01A7EAA8
:1021A000B1E40E9453126B017C01ACEEB4EFA501C7
:1021B00094010E946112C60ED71EE81EF91EF7FE9A
:1021C00006C081E0C81AD108E10880E8F80AC09288
:1021D0000401D0920501E0920601F0920701C701C7
:1021E000B6019F77FF90EF90DF90CF90BF90AF90B8
:1021F0009F908F90089560930401709305018093E0
:102200000601909307010895BB274A3031F49923C2
:1022100022F4BDE2909581959F4F0C941011BB273D
:10222000FB015527AA27880F991FAA1FA41710F092
:10223000A41B83955051B9F7A05DAA3308F0A95D9E
:10224000A193009779F7B111B1931192CB010C943E
:102250002911DC01FC01672F71917723E1F7329797
:1022600004C07C916D9370836291AE17BF07C8F371
:102270000895E89409C097FB3EF490958095709579
:1022800061957F4F8F4F9F4F9923A9F0F92F96E9C2
:10229000BB279395F695879577956795B795F11137
:1022A000F8CFFAF4BB0F11F460FF1BC06F5F7F4FD4
:1022B0008F4F9F4F16C0882311F096E911C07723E6
:1022C00021F09EE8872F762F05C0662371F096E8EF
:1022D000862F70E060E02AF09A95660F771F881FBE
:1022E000DAF7880F9695879597F908950E948911D6
:1022F0000C94FA110E94EC1138F00E94F31120F0B6
:10230000952311F00C94E3110C94E91111240C9411
:102310002E120E940B1270F3959FC1F3950F50E09F
:10232000551F629FF001729FBB27F00DB11D639F87
:10233000AA27F00DB11DAA1F649F6627B00DA11D2D
:10234000661F829F2227B00DA11D621F739FB00DD3
:10235000A11D621F839FA00D611D221F749F332743
:10236000A00D611D231F849F600D211D822F762FDC
:102370006A2F11249F5750409AF0F1F088234AF0B9
:10238000EE0FFF1FBB1F661F771F881F9150504025
:10239000A9F79E3F510580F00C94E3110C942E1286
:1023A0005F3FE4F3983ED4F3869577956795B795AC
:1023B000F795E7959F5FC1F7FE2B880F911D9695C6
:1023C000879597F9089597F99F6780E870E060E036
:1023D00008959FEF80EC089500240A9416161706BE
:1023E00018060906089500240A9412161306140606
:1023F00005060895092E0394000C11F4882352F069
:10240000BB0F40F4BF2B11F460FF04C06F5F7F4F20
:102410008F4F9F4F089557FD9058440F551F59F007
:102420005F3F71F04795880F97FB991F61F09F3FC1
:1024300079F087950895121613061406551FF2CFEA
:102440004695F1DF08C0161617061806991FF1CF3A
:1024500086957105610508940895E894BB27662761
:102460007727CB0197F90895052E97FB1EF400946A
:102470000E944B1257FD07D00E949D1207FC03D00B
:102480004EF40C944B1250954095309521953F4F4A
:102490004F4F5F4F089590958095709561957F4F50
:1024A0008F4F9F4F08950E94BF12A59F900DB49F1C
:1024B000900DA49F800D911D11240895B7FF0C94D9
:1024C00053120E945312821B930B08952F923F9236
:1024D0004F925F926F927F928F929F92AF92BF9234
:1024E000CF92DF92EF92FF920F931F93CF93DF93E0
:1024F000CDB7DEB7CA1BDB0B0FB6F894DEBF0FBE3D
:10250000CDBF09942A88398848885F846E847D8489
:102510008C849B84AA84B984C884DF80EE80FD808B
:102520000C811B81AA81B981CE0FD11D0FB6F89401
:10253000DEBF0FBECDBFED010895A1E21A2EAA1B8A
:10254000BB1BFD010DC0AA1FBB1FEE1FFF1FA21763
:10255000B307E407F50720F0A21BB30BE40BF50B60
:10256000661F771F881F991F1A9469F760957095E9
:10257000809590959B01AC01BD01CF010895A29F6C
:10258000B001B39FC001A39F700D811D1124911D47
:10259000B29F700D811D1124911D08955058BB27C5
:1025A000AA270E94E6120C94FA110E94EC1138F04E
:1025B0000E94F31120F039F49F3F19F426F40C9493
:1025C000E9110EF4E095E7FB0C94E311E92F0E946A
:1025D0000B1258F3BA17620773078407950720F0A8
:1025E00079F4A6F50C942D120EF4E0950B2EBA2F6B
:1025F000A02D0B01B90190010C01CA01A001112409
:10260000FF27591B99F0593F50F4503E68F11A16B4
:10261000F040A22F232F342F4427585FF3CF469545
:1026200037952795A795F0405395C9F77EF41F1667
:10263000BA0B620B730B840BBAF09150A1F0FF0F31
:10264000BB1F661F771F881FC2F70EC0BA0F621F1D
:10265000731F841F48F4879577956795B795F7950D
:102660009E3F08F0B0CF9395880F08F09927EE0FA2
:102670009795879508950E944F130C94FA110E9424
:10268000F31158F00E94EC1140F029F45F3F29F05B
:102690000C94E31151110C942E120C94E9110E9428
:1026A0000B1268F39923B1F3552391F3951B550B46
:1026B000BB27AA2762177307840738F09F5F5F4F15
:1026C000220F331F441FAA1FA9F335D00E2E3AF054
:1026D000E0E832D091505040E695001CCAF72BD06C
:1026E000FE2F29D0660F771F881FBB1F26173707BD
:1026F0004807AB07B0E809F0BB0B802DBF01FF27EF
:1027000093585F4F3AF09E3F510578F00C94E311D7
:102710000C942E125F3FE4F3983ED4F386957795A0
:102720006795B795F7959F5FC9F7880F911D9695A7
:10273000879597F90895E1E0660F771F881FBB1F03
:10274000621773078407BA0720F0621B730B840BB0
:10275000BA0BEE1F88F7E09508950E94B4136894B1
:10276000B1110C942E1208950E94131288F09F57F5
:1027700098F0B92F9927B751B0F0E1F0660F771FA5
:10278000881F991F1AF0BA95C9F714C0B13091F09B
:102790000E942D12B1E008950C942D12672F782F0E
:1027A0008827B85F39F0B93FCCF386957795679560
:1027B000B395D9F73EF490958095709561957F4FCC
:1027C0008F4F9F4F0895FA01EE0FFF1F309621059E
:1027D0003105A1F16115710561F48038BFE39B07F4
:1027E00049F168949038810561F08038BFEF9B070C
:1027F00041F099234AF5FF3FE1053105210519F123
:10280000E8940894E795D901AA2329F4AB2FBE2FA9
:10281000F85FD0F310C0FF5F70F4A695E0F7F739CA
:1028200050F019F0FF3A38F49F779F930DD00F9036
:1028300007FC9058089546F00C94E91160E070E0B0
:1028400080E89FE308954FE79F775F934F933F930F
:102850002F930E94DE142F913F914F915F910E9420
:1028600076110C943B1429F416F00C94E3110C949B
:102870002D120C94E9110E941312A8F39638A0F7B8
:1028800007F80F92E8942BE33AEA48EB5FE70E94DF
:102890008C110F920F920F924DB75EB70F920E945C
:1028A0002615E8E6F0E00E946D144F915F91EF91DC
:1028B000FF91E595EE1FFF1F49F0FE57E0684427A2
:1028C000EE0F441FFA95E1F74195550B0E94A014B5
:1028D0000F9007FE0C9494140895DF93CF931F93E9
:1028E0000F93FF92EF92DF927B018C01689406C0F8
:1028F000DA2EEF010E948911FE01E894A59125913D
:10290000359145915591A6F3EF010E94E612FE0123
:102910009701A801DA9469F7DF90EF90FF900F918B
:102920001F91CF91DF9108959B01AC0160E070E0B1
:1029300080E89FE30C943B130C94E3110C945A151C
:102940000E941312D8F39923C9F3940F511DA3F3D6
:102950009150504094F059F0882332F0660F771F61
:10296000881F91505040C1F79E3F51052CF7880FAA
:10297000911D9695879597F908955F3FACF0983E25
:102980009CF0BB27869577956795B79508F4B1605D
:102990009395C1F7BB0F58F711F460FFE8CF6F5F55
:1029A0007F4F8F4F9F4FE3CF0C942E1216F00C9455
:1029B0005A150C94E91168940C94E3110E941312B7
:1029C000A8F39923C1F3AEF3DF93CF931F930F9333
:1029D000FF92C92FDD2788232AF02197660F771FE2
:1029E000881FDAF720E030E040E85FEB9FE38839AA
:1029F00020F0803E38F021968F770E94CF12E0E9D8
:102A0000F0E004C00E94CF12EDEBF0E00E946D14E4
:102A10008B01BE01EC01FB2E6F5771097595771F75
:102A2000880B990B0E943B1128E132E741E35FE3F9
:102A30000E948911AF2D9801AE01FF900F911F9157
:102A4000CF91DF910E94E6120C94FA11FA01DC0199
:102A5000AA0FBB1F9B01AC01BF5728F422273327C5
:102A60004427507820C0B75190F4AB2F00244695EE
:102A700037952795011CA395D2F3002071F0220F02
:102A8000331F441FB395DAF30ED00C94CE1261308D
:102A90007105A0E88A07B94630F49B01AC016627AE
:102AA000772788279078309621F0208331834283DE
:102AB000538308959F3F31F0915020F48795779587
:102AC0006795B795880F911D9695879597F9089505
:102AD00097FB072E16F4009407D077FD09D00E94CB
:102AE0007C1507FC05D03EF4909581959F4F089585
:102AF000709561957F4F0895AA1BBB1B51E107C0DC
:102B0000AA1FBB1FA617B70710F0A61BB70B881F7D
:102B1000991F5A95A9F780959095BC01CD0108950C
:102B2000EE0FFF1F0590F491E02D09940F931F9372
:102B3000CF93DF938230910510F482E090E0E09132
:102B4000BE02F091BF0230E020E0B0E0A0E030979C
:102B500099F42115310509F44AC0281B390B24309A
:102B60003105D8F58A819B816115710589F1FB01D9
:102B700093838283FE0111C04081518102811381C0
:102B800048175907E0F04817590799F4109761F072
:102B900012960C93129713961C933296CF01DF91E5
:102BA000CF911F910F9108950093BE021093BF0221
:102BB000F4CF2115310551F04217530738F0A90120
:102BC000DB019A01BD01DF01F801C1CFEF01F9CFAF
:102BD0009093BF028093BE02CDCFFE01E20FF31FA0
:102BE000819391932250310939832883D7CF209143
:102BF000BC023091BD02232B41F420910A01309197
:102C00000B013093BD022093BC022091080130914A
:102C100009012115310541F42DB73EB740910C0152
:102C200050910D01241B350BE091BC02F091BD02C7
:102C3000E217F307A0F42E1B3F0B2817390778F093
:102C4000AC014E5F5F4F2417350748F04E0F5F1FF2
:102C50005093BD024093BC02819391939FCFF0E0CB
:102C6000E0E09CCFCF93DF930097E9F0FC0132972F
:102C700013821282A091BE02B091BF02ED0130E03A
:102C800020E01097A1F420813181820F931F2091C1
:102C9000BC023091BD022817390709F061C0F093DA
:102CA000BD02E093BC02DF91CF910895EA01CE17F7
:102CB000DF07E8F54A815B819E0141155105B1F7B7
:102CC000E901FB83EA8349915991C40FD51FEC17A1
:102CD000FD0761F4808191810296840F951FE901BF
:102CE00099838883828193819B838A83F0E0E0E0EB
:102CF00012968D919C9113970097B9F52D913C9167
:102D00001197CD010296820F931F2091BC02309142
:102D1000BD022817390739F6309751F51092BF02D6
:102D20001092BE02B093BD02A093BC02BCCFD3836D
:102D3000C28340815181840F951FC817D90761F460
:102D40004E5F5F4F88819981480F591F518340839F
:102D50008A819B81938382832115310509F0B0CF4D
:102D6000F093BF02E093BE029ECFFD01DC01C0CF15
:102D700013821282D7CFB0E0A0E0E1ECF6E10C9430
:102D800068128C01009751F4CB010E9496158C01BA
:102D9000C801CDB7DEB7E0E10C948412FC01E60F68
:102DA000F71F9C0122503109E217F30708F49DC078
:102DB000D901CD91DC911197C617D70798F0C5308E
:102DC000D10530F3CE0104978617970708F3C61B89
:102DD000D70B2297C193D1936D937C93CF010E941F
:102DE0003216D6CF5B01AC1ABD0A4C018C0E9D1E6B
:102DF000A091BE02B091BF02512C412CF12CE12CCC
:102E0000109731F58091BC029091BD02881599050B
:102E100009F05CC04616570608F058C080910801BA
:102E200090910901009741F48DB79EB740910C0134
:102E300050910D01841B950BE817F90708F055C058
:102E4000F093BD02E093BC02F90171836083A0CFCF
:102E50008D919C91119712966C90129713967C907D
:102E60001397A815B90559F56C0142E0C40ED11CA1
:102E7000CA14DB0420F1AC014A195B09DA0112968D
:102E8000159780F06282738251834083D9016D93DC
:102E90007C93E114F10471F0D7011396FC93EE9347
:102EA000129776CF22968C0F9D1FF9019183808314
:102EB000F301EFCFF093BF02E093BE0269CF481653
:102EC000590608F42C017D01D3019ACFCB010E9451
:102ED00096157C01009749F0AE01B8010E94781761
:102EE000C8010E943216870153CF10E000E050CF96
:102EF000FB01DC0102C001900D9241505040D8F717
:102F00000895FB01DC0101900D920020E1F7089586
:042F1000F894FFCF63
:102F140001000300010000000000C0028000000066
:102F240000008D06ED051A06DA064B0629063D0655
:0E2F34000A0A0A00200040002D000D0A0000CD
:00000001FF
